:020000040800F2
:10000000008001206D120008F5110008FB110008A6
:1000100001120008071200080D120008000000007D
:1000200000000000000000000000000013120008A3
:1000300021120008000000002F1200083D120008E5
:10004000BD120008BD120008BD120008BD12000854
:10005000BD120008BD120008BD120008BD12000844
:10006000BD120008BD120008BD120008BD12000834
:10007000BD120008BD120008BD120008BD12000824
:10008000BD120008BD120008BD12000800000000EB
:10009000000000000000000000000000BD12000889
:1000A000BD120008BD120008BD120008BD120008F4
:1000B000BD120008BD120008BD120008BD120008E4
:1000C000BD120008BD120008BD120008BD120008D4
:1000D000BD120008BD120008BD120008000000009B
:1000E000BD120008BD120008BD120008000000008B
:1000F000000000000000000000000000BD12000829
:1001000000000000BD120008BD120008BD1200086A
:1001100000000000000000000000000000000000DF
:10012000BD120008BD120008BD120008BD12000873
:10013000BD120008000000000000000000000000E8
:10014000000000000000000000000000BD120008D8
:10015000BD120008BD120008BD120008BD12000843
:10016000BD120008BD1200080000000000000000E1
:10017000000000000000000000000000000000007F
:1001800000000000BD120008000000000000000098
:04019000BD12000894
:1001940010B5054C237833B9044B13B10448AFF3BD
:1001A40000800123237010BD240000200000000003
:1001B400D831000808B5034B1BB103490348AFF31A
:1001C400008008BD0000000028000020D83100088D
:1001D40010F8012B11F8013B012A28BF9A42F7D0ED
:1001E400D01A704753B94AB9002908BF00281CBF68
:1001F4004FF0FF314FF0FF3000F074B9ADF1080C4F
:100204006DE904CE00F006F8DDF804E0DDE9022330
:1002140004B070472DE9F047089D04468E46002B34
:100224004DD18A42944669D9B2FA82F252B101FAA6
:1002340002F3C2F1200120FA01F10CFA02FC41EAB6
:10024400030E94404FEA1C48210CBEFBF8F61FFA3B
:100254008CF708FB16E341EA034306FB07F19942D6
:100264000AD91CEB030306F1FF3080F01F81994289
:1002740040F21C81023E63445B1AA4B2B3FBF8F063
:1002840008FB103344EA034400FB07F7A7420AD9EA
:100294001CEB040400F1FF3380F00A81A74240F212
:1002A40007816444023840EA0640E41B00261DB17D
:1002B400D4400023C5E900433146BDE8F0878B42B2
:1002C40009D9002D00F0EF800026C5E90001304671
:1002D4003146BDE8F087B3FA83F6002E4AD18B424B
:1002E40002D3824200F2F980841A61EB03030120F5
:1002F4009E46002DE0D0C5E9004EDDE702B9FFDEE1
:10030400B2FA82F2002A40F09280A1EB0C014FEA8B
:100314001C471FFA8CFE0126200CB1FBF7F307FBE8
:10032400131140EA01410EFB03F0884208D91CEB8B
:10033400010103F1FF3802D2884200F2CB80434628
:10034400091AA4B2B1FBF7F007FB101144EA014407
:100354000EFB00FEA64508D91CEB040400F1FF3196
:1003640002D2A64500F2BB800846A4EB0E0440EA84
:1003740003409CE7C6F12007B34022FA07FC4CEA8D
:10038400030C20FA07F401FA06F31C43F9404FEA80
:100394001C4900FA06F3B1FBF9F8200C1FFA8CFE95
:1003A40009FB181140EA014108FB0EF0884202FAE9
:1003B40006F20BD91CEB010108F1FF3A80F08880AA
:1003C400884240F28580A8F102086144091AA4B267
:1003D400B1FBF9F009FB101144EA014100FB0EFEE8
:1003E4008E4508D91CEB010100F1FF346CD28E4517
:1003F4006AD90238614440EA0840A0FB0294A1EBA8
:100404000E01A142C846A64656D353D05DB1B3EB04
:10041400080261EB0E0101FA07F722FA06F3F14034
:100424001F43C5E9007100263146BDE8F087C2F1DB
:100434002003D8400CFA02FC21FA03F39140014353
:100444004FEA1C471FFA8CFEB3FBF7F007FB10368C
:100454000B0C43EA064300FB0EF69E4204FA02F438
:1004640008D91CEB030300F1FF382FD29E422DD98B
:10047400023863449B1B89B2B3FBF7F607FB1633C0
:1004840041EA034106FB0EF38B4208D91CEB010140
:1004940006F1FF3816D28B4214D9023E6144C91AC0
:1004A40046EA004638E72E46284605E70646E3E6D0
:1004B4001846F8E64B45A9D2B9EB020864EB0C0EDA
:1004C4000138A3E74646EAE7204694E74046D1E7E9
:1004D400D0467BE7023B614432E7304609E7644497
:1004E400023842E7704700BF80B582B000AF0346D0
:1004F400FB80FB88184600F053FF00BF0837BD4659
:1005040080BD80B586B002AF78600B46FB701346A1
:10051400BB70FB7823F00F03FB73FB781B01BB73E9
:100524007B68DB7A002B07D0FB7B43F00803FB736B
:10053400BB7B43F00803BB73BB78012B08D1FB7B67
:1005440043F00103FB73BB7B43F00103BB730AE07D
:10055400BB78002B07D1FB7B23F00103FB73BB7B30
:1005640023F00103BB73FB7B43F00403DBB23B7258
:100574000120FFF7B9FFFB7B7B72BB7B43F00403D5
:10058400DBB2BB720120FFF7AFFFBB7BFB727B6862
:1005940018687B681B7999B207F108024FF47A73E3
:1005A4000093042301F000FB00BF1037BD4680BD5B
:1005B40080B584B000AFF860B96011461A460B46A6
:1005C400FB711346BB71FB68BA681A60FB68FA7961
:1005D4001A71FB68BA795A71FB683A7E9A71FB68A2
:1005E40028229A72FB680622DA71FB680C221A72BE
:1005F400FB6814225A72FB680822DA723220FFF771
:1006040073FF00223321F868FFF77BFF00223321B8
:10061400F868FFF776FF0520FFF766FF0022322116
:10062400F868FFF76EFF0520FFF75EFF0022202128
:10063400F868FFF766FF0520FFF756FFFB68DB79D4
:1006440000221946F868FFF75CFFFB681B7A00225A
:100654001946F868FFF755FFFB685B7A00221946D4
:10066400F868FFF74EFFFB689B7A00221946F8688A
:10067400FFF747FF00220121F868FFF742FF00223D
:100684000221F868FFF73DFF00BF1037BD4680BD6B
:1006940080B584B000AF78600B46FB701346BB7026
:1006A4000023FB737B685B79FA789A4203D37B68F7
:1006B4005B79013BFB707B689B79BA789A4203D3E0
:1006C4007B689B79013BBB70BB78002B02D1FB7824
:1006D400FB7313E0BB78012B03D1FB784033FB732E
:1006E4000CE0BB78022B03D1FB781433FB7305E0D9
:1006F400BB78032B02D1FB785433FB73FB7B63F091
:100704007F03DBB2002219467868FFF7FAFE00BFC8
:100714001037BD4680BD80B582B000AF78600B460F
:10072400FB70FB78012219467868FFF7EAFE00BFE8
:100734000837BD4680BD80B582B000AF78603960AF
:1007440007E03B685A1C3A601B7819467868FFF743
:10075400E2FF3B681B78002BF3D100BF00BF0837D2
:10076400BD4680BD80B582B000AF78600022012113
:100774007868FFF7C6FE0520FFF7B6FE00BF08370E
:10078400BD4680BD80B582B000AF0346FB80FB88C8
:10079400184600F005FE00BF0837BD4680BD80B591
:1007A40086B000AFF860B9607A603B60FB687A6835
:1007B4001A63FB683A6A5A63FB68BA6A9A63FB680D
:1007C4003A6BDA63FB683A681A61FB687A6A5A61C1
:1007D400FB68FA6A9A61FB687A6BDA61FB68BA6B48
:1007E4001A62FB683A6C5A62FB68BA6C9A62FB68DC
:1007F4003A6DDA62FB68FA6B1A60FB687A6C5A60CD
:10080400FB68FA6C9A60FB687A6DDA6000237B619E
:100814001BE000233B6112E03B699B00BA681A4469
:100824007B6913441978FA683B699B001A447B6915
:10083400134440330A461A703B6901333B613B69F8
:10084400032BE9DD7B6901337B617B69032BE0DDED
:10085400FB68186BFB681B699BB20122194601F007
:1008640045F8FB68586BFB685B699BB2012219462B
:1008740001F03CF8FB68986BFB689B699BB2012212
:10088400194601F033F8FB68D86BFB68DB699BB24F
:100894000122194601F02AF800BF1837BD4680BD71
:1008A40080B584B000AF78607B68002283F8502064
:1008B4000023FB605CE07B68FA680C3253F822008A
:1008C4007B68FA68043253F822309BB2002219463E
:1008D40001F00CF80023BB6035E07B68BA6808328D
:1008E40053F822007B68BA6853F822309BB2194649
:1008F40000F0E4FF0346002B22D13220FFF742FF31
:1009040000BF7B68BA68083253F822007B68BA6873
:1009140053F822309BB2194600F0D0FF0346002B57
:10092400EFD07A68BB689B001A44FB6813444033D9
:100934001A787B6883F850207B6893F850301BE06A
:10094400BB680133BB60BB68032BC6DD7B68FA68F8
:100954000C3253F822007B68FA68043253F82230D0
:100964009BB20122194600F0C1FFFB680133FB6012
:10097400FB68032B9FDD002318461037BD4680BD5E
:1009840080B58EB00EAF00F099FC00F0F3F800F0E3
:1009940009FA00F0B3F900F04DF900F079F900F02C
:1009A400D7F94FF400730D93644B0C9380230B938E
:1009B400634B0A9340230993624B08938023079364
:1009C4005E4B0693202305935E4B049310230393FD
:1009D4005C4B02934FF4806301935A4B00934FF4A2
:1009E4008073564A58495948FFF7D9FE02230093A9
:1009F4001023402256495748FFF7DAFD0022002110
:100A04005448FFF745FE54495248FFF794FE01222B
:100A140000215048FFF73CFE4C48FFF741FF0346D6
:100A24001A464E4B1A70142000F0BAFC4B4B1B783C
:100A3400002B7ED04A4B1B78012219464548FFF70C
:100A440027FE464B1B7819464248FFF764FE434B8A
:100A54001B78442B14D1424B00221A703D48FFF7F7
:100A640081FE002200213B48FFF712FE3A49394833
:100A7400FFF761FE012200213648FFF709FE58E026
:100A8400364B1B782A2B47D1354B00221A70354937
:100A94003548FFF79DFB0346002B1ED101220021A0
:100AA4002C48FFF7F5FD31492A48FFF744FE4FF47F
:100AB400FA6000F075FC2748FFF754FE002200217D
:100AC4002448FFF7E5FD24492248FFF734FE0122BC
:100AD40000212048FFF7DCFD2BE0012200211D4806
:100AE400FFF7D6FD22491B48FFF725FE4FF4FA60B5
:100AF40000F056FC1748FFF735FE00220021154888
:100B0400FFF7C6FD14491348FFF715FE0122002123
:100B14001048FFF7BDFD0CE0114B1B781A460F4B34
:100B24001978114B99540E4B1B780133DAB20C4BE4
:100B34001A70322000F034FC6EE700BF000002405F
:100B4400000802400004024000000020740100205C
:100B540040000020CC0100200C320008C801002015
:100B6400DE01002010000020D80100201C32000803
:100B74002C32000880B594B000AF07F12003302276
:100B84000021184602F01EFB07F10C0300221A6034
:100B94005A609A60DA601A610023BB60234B1B6CB5
:100BA400224A43F080531364204B1B6C03F08053A0
:100BB400BB60BB6800237B601D4B1B6823F4404370
:100BC4001B4A43F400431360194B1B6803F440436E
:100BD4007B607B6802233B620123FB6210233B633F
:100BE4000023BB6307F12003184601F0E5FA03462E
:100BF400002B01D000F082F90F23FB6000233B613E
:100C040000237B610023BB610023FB6107F10C031C
:100C14000021184601F048FD0346002B01D000F0E6
:100C24006DF900BF5037BD4680BD00BF003802409B
:100C34000070004080B500AF124B134A1A60114B8C
:100C4400124A5A600F4B00229A600E4B0022DA605F
:100C54000C4B4FF480421A610A4B00225A61094B33
:100C640000229A61074B0022DA61064B00221A62C5
:100C7400044800F055FE0346002B01D000F03EF975
:100C840000BF80BD4000002000540040A086010049
:100C940080B500AF174B184A1A60164B4FF4827296
:100CA4005A60144B00229A60124B0022DA60114BF6
:100CB40000221A610F4B00225A610E4B4FF400724E
:100CC4009A610C4B0022DA610A4B00221A62094B2A
:100CD40000225A62074B00229A62064B0A22DA6209
:100CE400044801F001FF0346002B01D000F006F98F
:100CF40000BF80BD940000200038004080B500AFE4
:100D0400114B124A1A60104B4FF4E1325A600E4BE9
:100D140000229A600C4B0022DA600B4B00221A610D
:100D2400094B0C225A61084B00229A61064B00229F
:100D3400DA61054801F061FF0346002B01D000F0A1
:100D4400DDF800BF80BD00BFEC000020004400407F
:100D540080B500AF114B124A1A60104B4FF4E132C8
:100D64005A600E4B00229A600C4B0022DA600B4B47
:100D740000221A61094B0C225A61084B00229A6125
:100D8400064B0022DA61054801F037FF0346002BC9
:100D940001D000F0B3F800BF80BD00BF30010020D7
:100DA4000014014080B58AB000AF07F1140300229B
:100DB4001A605A609A60DA601A6100233B614B4BF7
:100DC4001B6B4A4A43F004031363484B1B6B03F049
:100DD40004033B613B690023FB60444B1B6B434AA8
:100DE40043F080031363414B1B6B03F08003FB60F0
:100DF400FB680023BB603D4B1B6B3C4A43F0010383
:100E040013633A4B1B6B03F00103BB60BB68002305
:100E14007B60364B1B6B354A43F002031363334B41
:100E24001B6B03F002037B607B6800224FF490711C
:100E34002F4800F05BFD00224FF486612D4800F03E
:100E440055FD4FF400537B614FF40413BB61002341
:100E5400FB6107F114031946274800F0ABFB4FF47C
:100E640090737B610123BB610023FB6100233B6220
:100E740007F1140319461E4800F09CFB4FF420733D
:100E84007B610023BB610123FB6107F11403194655
:100E9400174800F08FFB4FF486637B610123BB612D
:100EA4000023FB6100233B6207F114031946114838
:100EB40000F080FB80237B610023BB610123FB6185
:100EC40007F1140319460C4800F074FB40237B61BE
:100ED4000023BB610123FB6107F114031946054894
:100EE40000F068FB00BF2837BD4680BD00380240D3
:100EF40000000240000402400008024080B400AF39
:100F040072B600BFFEE7000080B582B000AF0023D8
:100F14007B60104B5B6C0F4A43F4804353640D4B6E
:100F24005B6C03F480437B607B6800233B60094B6C
:100F34001B6C084A43F080531364064B1B6C03F08C
:100F440080533B603B68072000F000FB00BF08377C
:100F5400BD4680BD0038024080B58AB000AF7860DD
:100F640007F1140300221A605A609A60DA601A6169
:100F74007B681B68194A93422CD100233B61184BB0
:100F84001B6B174A43F002031363154B1B6B03F0EF
:100F940002033B613B694FF440737B611223BB61E5
:100FA4000023FB6103233B6204237B6207F11403E8
:100FB40019460C4800F0FEFA0023FB60084B1B6C3A
:100FC400074A43F400131364054B1B6C03F400132A
:100FD400FB60FB6800BF2837BD4680BD005400405D
:100FE400003802400004024080B58AB000AF786047
:100FF40007F1140300221A605A609A60DA601A61D9
:101004007B681B68284A93424AD100233B61274BE3
:101014001B6C264A43F480431364244B1B6C03F477
:1010240080433B613B690023FB60204B1B6B1F4AE1
:1010340043F0040313631D4B1B6B03F00403FB60B9
:10104400FB680023BB60194B1B6B184A43F0020377
:101054001363164B1B6B03F00203BB60BB680C23CA
:101064007B610223BB610023FB6103233B620523F5
:101074007B6207F1140319460D4800F09BFA4FF404
:1010840000537B610223BB610023FB6103233B62AA
:1010940005237B6207F114031946064800F08AFA17
:1010A40000BF2837BD4680BD0038004000380240EC
:1010B400000802400004024080B58CB000AF7860A4
:1010C40007F11C0300221A605A609A60DA601A6100
:1010D4007B681B68414A93422CD10023BB61404B7F
:1010E4001B6C3F4A43F4003313643D4B1B6C03F405
:1010F4000033BB61BB6900237B61394B1B6B384AEE
:1011040043F001031363364B1B6B03F001037B6154
:101114007B690C23FB6102233B6200237B62002377
:10112400BB620723FB6207F11C0319462D4800F03C
:1011340041FA4FE07B681B682B4A93424AD1002353
:101144003B61274B5B6C264A43F020035364244BDA
:101154005B6C03F020033B613B690023FB60204B85
:101164001B6B1F4A43F0040313631D4B1B6B03F0FB
:101174000403FB60FB680023BB60194B1B6B184A1C
:1011840043F001031363164B1B6B03F00103BB60B5
:10119400BB684023FB6102233B6200237B62032381
:1011A400BB620823FB6207F11C0319460F4800F0D9
:1011B40001FA4FF48053FB6102233B6200237B62FC
:1011C4000323BB620823FB6207F11C03194605488D
:1011D40000F0F0F900BF3037BD4680BD0044004048
:1011E40000380240000002400014014000080240A0
:1011F40080B400AFFEE780B400AFFEE780B400AF78
:10120400FEE780B400AFFEE780B400AFFEE780B431
:1012140000AF00BFBD465DF8047B704780B400AFEB
:1012240000BFBD465DF8047B704780B400AF00BFCB
:10123400BD465DF8047B704780B500AF00F090F8C0
:1012440000BF80BD80B400AF064BD3F88830054A98
:1012540043F47003C2F8883000BFBD465DF8047BD8
:10126400704700BF00ED00E0DFF834D00D480E49B0
:101274000E4A002302E0D458C4500433C4188C42EC
:10128400F9D30B4A0B4C002301E013600432A24251
:10129400FBD3FFF7D7FF01F071FFFFF771FB704736
:1012A4000080012000000020240000206432000897
:1012B40024000020E4010020FEE7000080B500AF18
:1012C4000E4B1B680D4A43F4007313600B4B1B68F1
:1012D4000A4A43F480631360084B1B68074A43F4CB
:1012E40080731360032000F031F9002000F008F847
:1012F400FFF70AFE0023184680BD00BF003C0240F1
:1013040080B582B000AF7860124B1A68124B1B781C
:1013140019464FF47A73B3FBF1F3B2FBF3F31846B7
:1013240000F03BF90346002B01D001230EE07B685B
:101334000F2B0AD8002279684FF0FF3000F011F922
:10134400064A7B681360002300E00123184608372F
:10135400BD4680BD18000020200000201C00002095
:1013640080B400AF064B1B781A46064B1B68134427
:10137400044A136000BFBD465DF8047B704700BF9C
:1013840020000020E001002080B400AF034B1B6864
:101394001846BD465DF8047B704700BFE00100209D
:1013A40080B584B000AF7860FFF7EEFFB8607B686B
:1013B400FB60FB68B3F1FF3F05D00A4B1B781A466C
:1013C400FB681344FB6000BFFFF7DEFF0246BB6807
:1013D400D31AFA689A42F7D800BF00BF1037BD4647
:1013E40080BD00BF2000002080B485B000AF7860CD
:1013F4007B6803F00703FB600C4BDB68BB60BA68D7
:101404004FF6FF031340BB60FB681A02BB6813432B
:1014140043F0BF6343F40033BB60044ABB68D3604A
:1014240000BF1437BD465DF8047B704700ED00E053
:1014340080B400AF044BDB681B0A03F007031846B3
:10144400BD465DF8047B704700ED00E080B483B0D6
:1014540000AF03463960FB7197F90730002B0ADBB4
:101464003B68DAB20C4997F907301201D2B20B4447
:1014740083F800230AE03B68DAB20849FB7903F0F9
:101484000F03043B1201D2B20B441A7600BF0C378F
:10149400BD465DF8047B704700E100E000ED00E02C
:1014A40080B489B000AFF860B9607A60FB6803F07B
:1014B4000703FB61FB69C3F10703042B28BF042363
:1014C400BB61FB690433062B02D9FB69033B00E0D3
:1014D40000237B614FF0FF32BB6902FA03F3DA4366
:1014E400BB681A407B699A404FF0FF317B6901FA6F
:1014F40003F3D9437B680B40134318462437BD4696
:101504005DF8047B7047000080B582B000AF78605E
:101514007B68013BB3F1807F01D301230FE00A4ACA
:101524007B68013B53600F214FF0FF30FFF78EFFC4
:10153400054B00229A60044B07221A6000231846C8
:101544000837BD4680BD00BF10E000E080B582B022
:1015540000AF78607868FFF747FF00BF0837BD46E3
:1015640080BD80B586B000AF0346B9607A60FB7376
:1015740000237B61FFF75CFF78617A68B96878695A
:10158400FFF78EFF024697F90F3011461846FFF712
:101594005DFF00BF1837BD4680BD80B582B000AF87
:1015A40078607868FFF7B0FF034618460837BD46F1
:1015B40080BD000080B489B000AF7860396000233A
:1015C4007B6100233B610023BB610023FB6159E184
:1015D4000122FB6902FA03F37B613B681B687A69A9
:1015E40013403B613A697B699A4240F048813B6809
:1015F4005B6803F00303012B05D03B685B6803F0D1
:101604000303022B30D17B689B68BB61FB695B00E1
:10161400032202FA03F3DB43BA691340BB613B685C
:10162400DA68FB695B0002FA03F3BA691343BB612E
:101634007B68BA699A607B685B68BB610122FB695D
:1016440002FA03F3DB43BA691340BB613B685B688E
:101654001B0903F00102FB6902FA03F3BA6913439D
:10166400BB617B68BA695A603B685B6803F003033B
:10167400032B17D07B68DB68BB61FB695B0003222B
:1016840002FA03F3DB43BA691340BB613B689A680F
:10169400FB695B0002FA03F3BA691343BB617B681D
:1016A400BA69DA603B685B6803F00303022B23D159
:1016B400FB69DA087B68083253F82230BB61FB69A6
:1016C40003F007039B000F2202FA03F3DB43BA691A
:1016D4001340BB613B681A69FB6903F007039B0075
:1016E40002FA03F3BA691343BB61FB69DA087B6846
:1016F4000832B96943F822107B681B68BB61FB6937
:101704005B00032202FA03F3DB43BA691340BB61B3
:101714003B685B6803F00302FB695B0002FA03F3B6
:10172400BA691343BB617B68BA691A603B685B683A
:1017340003F44033002B00F0A2800023FB60574BDE
:101744005B6C564A43F480435364544B5B6C03F420
:101754008043FB60FB68524AFB699B08023352F8E2
:101764002330BB61FB6903F003039B000F2202FAE1
:1017740003F3DB43BA691340BB617B68494A934274
:1017840019D07B68484A934213D07B68474A9342F6
:101794000DD07B68464A934207D07B68454A934202
:1017A40001D1042308E0072306E0032304E0022315
:1017B40002E0012300E00023FA6902F00302920030
:1017C4009340BA691343BB613549FB699B080233F3
:1017D400BA6941F82320384B9B68BB613B69DB4302
:1017E400BA691340BB613B685B6803F48013002B48
:1017F40003D0BA693B691343BB612F4ABB69936049
:101804002D4BDB68BB613B69DB43BA691340BB61A9
:101814003B685B6803F40013002B03D0BA693B698F
:101824001343BB61244ABB69D360234B5B68BB6130
:101834003B69DB43BA691340BB613B685B6803F4F3
:101844000033002B03D0BA693B691343BB611A4AC6
:10185400BB695360184B1B68BB613B69DB43BA69C6
:101864001340BB613B685B6803F48033002B03D0F7
:10187400BA693B691343BB610F4ABB691360FB69D7
:101884000133FB61FB690F2B7FF6A2AE00BF00BFE3
:101894002437BD465DF8047B704700BF0038024022
:1018A40000380140000002400004024000080240E9
:1018B400000C024000100240003C014080B485B09E
:1018C40000AF78600B467B807B681A697B88134085
:1018D400002B02D00123FB7301E00023FB73FB7B8D
:1018E40018461437BD465DF8047B704780B483B056
:1018F40000AF78600B467B8013467B707B78002BAF
:1019040003D07A887B689A6103E07B881A047B6839
:101914009A6100BF0C37BD465DF8047B7047000038
:1019240080B584B000AF78607B68002B01D10123BF
:101934002BE17B6893F83D30DBB2002B06D17B684A
:10194400002283F83C207868FFF706FB7B6824229A
:1019540083F83D207B681B681A687B681B6822F04B
:1019640001021A607B681B681A687B681B6842F472
:1019740000421A607B681B681A687B681B6822F443
:1019840000421A6001F088F8F8607B685B68814A5D
:10199400934207D8FB68804A934294BF01230023F3
:1019A400DBB206E0FB687D4A934294BF0123002327
:1019B400DBB2002B01D00123E7E0FB68784AA2FBED
:1019C40003239B0CBB607B681B685B6823F03F01AF
:1019D4007B681B68BA680A435A607B681B681B6A89
:1019E40023F03F017B685B686A4A934202D8BB6874
:1019F400013309E0BB684FF4967202FB03F3694AB2
:101A0400A2FB03239B0901337A6812680B43136218
:101A14007B681B68DB6923F44F4222F0FF027B687A
:101A24005B685C498B4219D8FB68591E7B685B680C
:101A34005B00B1FBF3F3591C40F6FC730B40002B25
:101A44000AD0FB68591E7B685B685B00B1FBF3F34B
:101A54000133C3F30B0351E004234FE07B689B681D
:101A6400002B11D1FB68581E7B6859680B465B003C
:101A74000B44B0FBF3F30133C3F30B03002B0CBF94
:101A840001230023DBB212E0FB68581E7B6859680F
:101A94000B469B000B4499000B44B0FBF3F301335A
:101AA400C3F30B03002B0CBF01230023DBB2002B79
:101AB40001D0012322E07B689B68002B0ED1FB68D8
:101AC400581E7B6859680B465B000B44B0FBF3F36C
:101AD4000133C3F30B0343F400430FE0FB68581EC8
:101AE4007B6859680B469B000B4499000B44B0FB80
:101AF400F3F30133C3F30B0343F4404379680968F8
:101B04001343CB617B681B681B6823F0C0017B68AF
:101B1400DA697B681B6A1A437B681B680A431A608C
:101B24007B681B689B6823F4034323F0FF037A68F4
:101B340011697A68D26811437A6812680B4393601A
:101B44007B681B68DB6823F0FF017B685A697B684C
:101B54009B691A437B681B680A43DA607B681B68CD
:101B64001A687B681B6842F001021A607B680022D5
:101B74001A647B68202283F83D207B6800221A6364
:101B84007B68002283F83E20002318461037BD46A8
:101B940080BD00BFA08601007F841E00FF083D00B9
:101BA40083DE1B43D34D621080B588B002AFF8606A
:101BB4007A601A460B467B8113463B81FFF7E4FBB0
:101BC4007861FB6893F83D30DBB2202B40F0E08075
:101BD4007B690093192301227049F86800F064F9C5
:101BE4000346002B01D00223D3E0FB6893F83C307A
:101BF400012B01D10223CCE0FB68012283F83C20B5
:101C0400FB681B681B6803F00103012B07D0FB680A
:101C14001B681A68FB681B6842F001021A60FB68C3
:101C24001B681A68FB681B6822F400621A60FB6870
:101C3400212283F83D20FB68102283F83E20FB68B4
:101C440000221A64FB687A685A62FB683A895A85EA
:101C5400FB685B8D9AB2FB681A85FB68504ADA62AE
:101C640079897B693A6AF86800F09CF80346002B8E
:101C740001D001238DE000233B61FB681B685B6995
:101C84003B61FB681B689B693B613B6966E07A6961
:101C9400396AF86800F0DEF90346002B0DD0FB68C2
:101CA4001B6C042B07D1FB681B681A68FB681B6854
:101CB40042F400721A6001236BE0FB685B6A1A78D5
:101CC400FB681B681A61FB685B6A5A1CFB685A62F2
:101CD400FB685B8D9BB2013B9AB2FB685A85FB683B
:101CE4001B8D013B9AB2FB681A85FB681B685B6914
:101CF40003F00403042B1BD1FB681B8D002B17D0AE
:101D0400FB685B6A1A78FB681B681A61FB685B6A8C
:101D14005A1CFB685A62FB685B8D9BB2013B9AB20A
:101D2400FB685A85FB681B8D013B9AB2FB681A85D8
:101D34007A69396AF86800F0CEF90346002B0DD0B1
:101D4400FB681B6C042B07D1FB681B681A68FB68D3
:101D54001B6842F400721A6001231AE0FB681B8DB1
:101D6400002B94D1FB681B681A68FB681B6842F45B
:101D740000721A60FB68202283F83D20FB68002271
:101D840083F83E20FB68002283F83C20002300E017
:101D9400022318461837BD4680BD00BF020010005C
:101DA4000000FFFF80B588B002AFF8607A603B6046
:101DB4000B467B81FB68DB6A7B617B69082B06D061
:101DC4007B69012B03D07B6913F5803F08D1FB6845
:101DD4001B681A68FB681B6842F480721A600BE087
:101DE400FB681B6B122B07D1FB681B681A68FB6826
:101DF4001B6842F480721A603B6800937B6800227F
:101E04004FF00111F86800F04FF80346002B0DD095
:101E1400FB681B681B6803F48073B3F5807F03D1F0
:101E2400FB684FF400721A64032335E0FB681B69F6
:101E3400B3F5804F08D17B89DBB21A46FB681B6877
:101E440002F0FE021A611BE07B89DB11DBB203F0B6
:101E54000603DBB263F00F03DAB2FB681B681A6196
:101E64003B687A680E49F86800F075F80346002B61
:101E740001D0012310E07B89DAB2FB681B681A6188
:101E84003B687A680749F86800F065F80346002B58
:101E940001D0012300E0002318461837BD4680BD59
:101EA400080001000200010080B584B000AFF860B2
:101EB400B9603B601346FB7125E03B68B3F1FF3F1B
:101EC40021D0FFF761FA0246BB69D31A3A689A42F5
:101ED40002D33B68002B16D1FB6800221A63FB680F
:101EE400202283F83D20FB68002283F83E20FB6813
:101EF4001B6C43F02002FB681A64FB68002283F821
:101F04003C20012323E0BB681B0CDBB2012B0DD169
:101F1400FB681B685B69DA43BB6813409BB2002B08
:101F24000CBF01230023DBB21A460CE0FB681B68DC
:101F34009B69DA43BB6813409BB2002B0CBF01239F
:101F44000023DBB21A46FB799A42B6D00023184626
:101F54001037BD4680BD80B584B000AFF860B9606D
:101F64007A603B6051E0FB681B685B6903F4806343
:101F7400B3F5806F23D1FB681B681A68FB681B6884
:101F840042F400721A60FB681B686FF480625A6145
:101F9400FB6800221A63FB68202283F83D20FB685B
:101FA400002283F83E20FB681B6C43F00402FB68AC
:101FB4001A64FB68002283F83C20012346E07B6816
:101FC400B3F1FF3F21D0FFF7DFF902463B68D31A94
:101FD4007A689A4202D37B68002B16D1FB680022F0
:101FE4001A63FB68202283F83D20FB68002283F8F3
:101FF4003E20FB681B6C43F02002FB681A64FB68FC
:10200400002283F83C20012320E0BB681B0CDBB2D8
:10201400012B0CD1FB681B685B69DA43BB68134076
:102024009BB2002B14BF01230023DBB20BE0FB683F
:102034001B689B69DA43BB6813409BB2002B14BF37
:1020440001230023DBB2002B8DD100231846103767
:10205400BD4680BD80B584B000AFF860B9607A60D9
:102064002DE0F86800F078F80346002B01D0012336
:102074002DE0BB68B3F1FF3F21D0FFF785F902469D
:102084007B68D31ABA689A4202D3BB68002B16D174
:10209400FB6800221A63FB68202283F83D20FB685A
:1020A400002283F83E20FB681B6C43F02002FB688F
:1020B4001A64FB68002283F83C20012307E0FB68D4
:1020C4001B685B6903F08003802BCAD10023184688
:1020D4001037BD4680BD80B584B000AFF860B960EC
:1020E4007A602DE0F86800F037F80346002B01D041
:1020F40001232DE0BB68B3F1FF3F21D0FFF744F982
:1021040002467B68D31ABA689A4202D3BB68002B92
:1021140016D1FB6800221A63FB68202283F83D2055
:10212400FB68002283F83E20FB681B6C43F020020E
:10213400FB681A64FB68002283F83C20012307E053
:10214400FB681B685B6903F00403042BCAD10023FA
:1021540018461037BD4680BD80B483B000AF7860A8
:102164007B681B685B6903F48063B3F5806F1BD1E4
:102174007B681B686FF480625A617B6800221A6373
:102184007B68202283F83D207B68002283F83E2070
:102194007B681B6C43F004027B681A647B68002232
:1021A40083F83C20012300E0002318460C37BD4689
:1021B4005DF8047B7047000080B586B000AF78609E
:1021C4007B68002B01D1012367E27B681B6803F065
:1021D4000103002B75D0884B9B6803F00C03042B80
:1021E4000CD0854B9B6803F00C03082B12D1824B57
:1021F4005B6803F48003B3F5800F0BD17E4B1B683F
:1022040003F40033002B5BD07B685B68002B57D151
:10221400012342E27B685B68B3F5803F06D1764BCD
:102224001B68754A43F4803313601DE07B685B6868
:10223400B3F5A02F0CD1704B1B686F4A43F4802375
:1022440013606D4B1B686C4A43F4803313600BE0DE
:10225400694B1B68684A23F480331360664B1B6820
:10226400654A23F4802313607B685B68002B13D0DA
:10227400FFF78AF8386108E0FFF786F802463B6901
:10228400D31A642B01D9032307E25B4B1B6803F4C5
:102294000033002BF0D014E0FFF776F8386108E043
:1022A400FFF772F802463B69D31A642B01D9032362
:1022B400F3E1514B1B6803F40033002BF0D100E031
:1022C40000BF7B681B6803F00203002B63D04A4BFA
:1022D4009B6803F00C03002B0BD0474B9B6803F067
:1022E4000C03082B1CD1444B5B6803F48003002BC4
:1022F40016D1414B1B6803F00203002B05D07B6809
:10230400DB68012B01D00123C7E13B4B1B6823F0A1
:10231400F8027B681B69DB00374913430B603AE022
:102324007B68DB68002B20D0344B01221A60FFF756
:102334002BF8386108E0FFF727F802463B69D31A07
:10234400022B01D90323A8E12B4B1B6803F00203E2
:10235400002BF0D0284B1B6823F0F8027B681B6924
:10236400DB00254913430B6015E0244B00221A605F
:10237400FFF70AF8386108E0FFF706F802463B6900
:10238400D31A022B01D9032387E11B4B1B6803F0EB
:102394000203002BF0D17B681B6803F00803002BB9
:1023A40036D07B685B69002B16D0154B01221A606E
:1023B400FEF7EAFF386108E0FEF7E6FF02463B69F4
:1023C400D31A022B01D9032367E10B4B5B6F03F094
:1023D4000203002BF0D01BE0094B00221A60FEF729
:1023E400D3FF38610EE0FEF7CFFF02463B69D31AF4
:1023F400022B07D9032350E1003802400000474272
:10240400800E4742884B5B6F03F00203002BEAD136
:102414007B681B6803F00403002B00F09780002303
:10242400FB75814B1B6C03F08053002B0FD10023F1
:10243400BB607D4B1B6C7C4A43F0805313647A4B26
:102444001B6C03F08053BB60BB680123FB75774BA7
:102454001B6803F48073002B18D1744B1B68734AF8
:1024640043F480731360FEF78FFF386108E0FEF7D2
:102474008BFF02463B69D31A022B01D903230CE1DB
:102484006A4B1B6803F48073002BF0D07B689B6855
:10249400012B06D1644B1B6F634A43F0010313679E
:1024A4001CE07B689B68052B0CD15F4B1B6F5E4A5D
:1024B40043F0040313675C4B1B6F5B4A43F0010357
:1024C40013670BE0584B1B6F574A23F00103136744
:1024D400554B1B6F544A23F0040313677B689B68B6
:1024E400002B15D0FEF750FF38610AE0FEF74CFFD1
:1024F40002463B69D31A41F28832934201D903233D
:10250400CBE0494B1B6F03F00203002BEED014E029
:10251400FEF73AFF38610AE0FEF736FF02463B69F0
:10252400D31A41F28832934201D90323B5E03E4BDA
:102534001B6F03F00203002BEED1FB7D012B05D1B1
:10254400394B1B6C384A23F0805313647B689B69B6
:10255400002B00F0A180344B9B6803F00C03082B84
:102564005CD07B689B69022B41D1314B00221A60FD
:10257400FEF70AFF386108E0FEF706FF02463B69F2
:10258400D31A022B01D9032387E0274B1B6803F0DE
:102594000073002BF0D17B68DA697B681B6A1A43ED
:1025A4007B685B6A9B011A437B689B6A5B08013BFF
:1025B4001B041A437B68DB6A1B061B4913434B60ED
:1025C4001B4B01221A60FEF7DFFE386108E0FEF7BC
:1025D400DBFE02463B69D31A022B01D903235CE0DC
:1025E400114B1B6803F00073002BF0D054E0104B28
:1025F40000221A60FEF7C8FE386108E0FEF7C4FE48
:1026040002463B69D31A022B01D9032345E0064B4A
:102614001B6803F00073002BF0D13DE07B689B69DD
:10262400012B07D1012338E000380240007000403C
:10263400600047421B4B5B68FB607B689B69012B16
:1026440028D0FB6803F480027B68DB699A4221D1BD
:10265400FB6803F03F027B681B6A9A421AD1FA684E
:1026640047F6C07313407A68526A9201934211D1BB
:10267400FB6803F440327B689B6A5B08013B1B04E4
:102684009A4207D1FB6803F070627B68DB6A1B0621
:102694009A4201D0012300E0002318461837BD46B2
:1026A40080BD00BF0038024080B584B000AF7860C0
:1026B40039607B68002B01D10123CCE0684B1B6897
:1026C40003F007033A689A420CD9654B3A68D2B2D0
:1026D4001A70634B1B6803F007033A689A4201D0EF
:1026E4000123B8E07B681B6803F00203002B20D0B1
:1026F4007B681B6803F00403002B05D0594B9B68CF
:10270400584A43F4E05393607B681B6803F0080362
:10271400002B05D0534B9B68524A43F460439360AB
:10272400504B9B6823F0F0027B689B684D49134330
:102734008B607B681B6803F00103002B44D07B682B
:102744005B68012B07D1474B1B6803F40033002B54
:1027540019D101237FE07B685B68022B03D07B687F
:102764005B68032B07D13F4B1B6803F00073002BFE
:1027740009D101236FE03B4B1B6803F00203002BDC
:1027840001D1012367E0374B9B6823F003027B6888
:102794005B68344913438B60FEF7F6FDF8600AE08A
:1027A400FEF7F2FD0246FB68D31A41F288329342E7
:1027B40001D903234FE02B4B9B6803F00C027B6889
:1027C4005B689B009A42EBD1254B1B6803F007031F
:1027D4003A689A420CD2224B3A68D2B21A70204B11
:1027E4001B6803F007033A689A4201D0012332E0E0
:1027F4007B681B6803F00403002B08D0194B9B680B
:1028040023F4E0527B68DB68164913438B607B68D2
:102814001B6803F00803002B09D0124B9B6823F4B8
:1028240060427B681B69DB000E4913438B6000F038
:1028340021F802460B4B9B681B0903F00F030A495E
:10284400CB5C22FA03F3094A1360094B1B68184650
:10285400FEF756FD002318461037BD4680BD00BF65
:10286400003C0240003802403C32000818000020BE
:102874001C0000202DE9B04F94B000AF00237B640E
:102884000023FB6400233B640023BB64794B9B68F7
:1028940003F00C03082B0DD0082B00F2E180002B71
:1028A40002D0042B03D0DBE0734BBB64DBE0734B3F
:1028B400BB64D8E06F4B5B6803F03F037B646D4BF4
:1028C4005B6803F48003002B63D06A4B5B689B094D
:1028D4000022BB63FA63BB6BC3F308033B630023AF
:1028E4007B63D7E90C4522462B464FF000004FF09E
:1028F4000001590141EAD261500102460B462146CA
:10290400511A3961294663EB01037B614FF00002E0
:102914004FF00003D7E904AB59468B01514643EA13
:10292400916351468A015146B2EB0108594663EB63
:1029340001094FF000024FF000034FEAC90343EAD4
:1029440058734FEAC80290469946234618EB03038E
:10295400BB602B4649EB0303FB604FF000024FF0D2
:102964000003D7E9024529464B02214643EAD153E5
:1029740021464A02104619467B6C0022BB62FA6269
:10298400D7E90A23FDF72EFC02460B461346FB64E7
:1029940058E0384B5B689B09002218461146C0F387
:1029A40008033B6200237B62D7E9088942464B4611
:1029B4004FF000004FF00001590141EAD26150018B
:1029C40002460B464146B2EB010A494663EB010B52
:1029D4004FF000024FF000034FEA8B1343EA9A636F
:1029E4004FEA8A12B2EB0A0463EB0B054FF00002C4
:1029F4004FF00003EB0043EA5473E20014461D4613
:102A04004346E3183B604B4645EB03037B604FF0C2
:102A140000024FF00003D7E9004529468B02214606
:102A240043EA915321468A02104619467B6C0022E0
:102A3400BB61FA61D7E90623FDF7D4FB02460B46D6
:102A44001346FB640B4B5B681B0C03F0030301335D
:102A54005B003B64FA6C3B6CB2FBF3F3BB6402E0D7
:102A6400054BBB6400BFBB6C18465037BD46BDE880
:102A7400B08F00BF003802400024F40000127A0036
:102A840080B400AF034B1B681846BD465DF8047B59
:102A9400704700BF1800002080B500AFFFF7F0FFBB
:102AA4000246054B9B689B0A03F007030349CB5C72
:102AB40022FA03F3184680BD003802404C32000865
:102AC40080B500AFFFF7DCFF0246054B9B685B0B4C
:102AD40003F007030349CB5C22FA03F3184680BDD5
:102AE400003802404C32000880B582B000AF7860F4
:102AF4007B68002B01D101237BE07B685B6A002BA0
:102B040008D17B685B68B3F5827F09D07B680022BB
:102B1400DA6105E07B6800221A617B6800225A6151
:102B24007B6800229A627B6893F85130DBB2002BF9
:102B340006D17B68002283F850207868FEF754FAA7
:102B44007B68022283F851207B681B681A687B68C3
:102B54001B6822F040021A607B685B6803F482728F
:102B64007B689B6803F404431A437B68DB6803F4C3
:102B740000631A437B681B6903F002031A437B68F2
:102B84005B6903F001031A437B689B6903F40073D8
:102B94001A437B68DB6903F038031A437B681B6ABA
:102BA40003F0800342EA03017B689B6A03F400524A
:102BB4007B681B680A431A607B689B691B0C03F0E3
:102BC40004017B685B6A03F010027B681B680A439C
:102BD4005A607B681B68DA697B681B6822F40062B0
:102BE400DA617B6800225A657B68012283F85120F0
:102BF400002318460837BD4680BD80B582B000AFBB
:102C040078607B68002B01D101233FE07B6893F857
:102C14003D30DBB2002B06D17B68002283F83C20D8
:102C24007868FEF749FA7B68242283F83D207B68A4
:102C34001B68DA687B681B6822F40052DA607868E3
:102C440000F028F87B681B681A697B681B6822F40B
:102C540090421A617B681B685A697B681B6822F082
:102C64002A025A617B681B68DA687B681B6842F435
:102C74000052DA607B6800221A647B68202283F8A1
:102C84003D207B68202283F83E2000231846083725
:102C9400BD4680BD2DE9B04FC0B000AFC7F8F40009
:102CA400D7F8F4301B681B6923F44050D7F8F4308C
:102CB400D968D7F8F4301A6840EA01031361D7F8E9
:102CC400F4309A68D7F8F4301B691A43D7F8F43013
:102CD4005B691A43D7F8F430DB691343C7F8F8305B
:102CE400D7F8F4301B68DB6823F4164121F00C019B
:102CF400D7F8F4301A68D7F8F8300B43D360D7F814
:102D0400F4301B685B6923F44070D7F8F430996998
:102D1400D7F8F4301A6840EA01035361D7F8F43065
:102D24001A688F4B9A4205D0D7F8F4301A688D4B45
:102D34009A4204D1FFF7C4FEC7F8FC0003E0FFF792
:102D4400ABFEC7F8FC00D7F8F430DB69B3F5004FED
:102D540040F00C81D7F8FC300022C7F8E830C7F8FF
:102D6400EC20D7E93A4522462B469118B9655B41D8
:102D7400FB65D7E91623214612EB0108294643EBEC
:102D840001094FF000024FF000034FEAC90343EA80
:102D940058734FEAC80290469946234618EB03033A
:102DA400C7F8E0302B4649EB0303C7F8E430D7F803
:102DB400F4305B680022C7F8D830C7F8DC20D7E9C4
:102DC40036120B46DB183B65134642EB03037B6567
:102DD400D7E91423D7E93801FDF704FA02460B4674
:102DE400614BA3FB02235B091C01D7F8FC300022D2
:102DF400C7F8D030C7F8D420D7E9348942464B46C7
:102E04009118B9645B41FB64D7E91223414612EB84
:102E1400010A494643EB010B4FF000024FF0000357
:102E24004FEACB0343EA5A734FEACA0292469B46DF
:102E340043461AEB0303C7F8C8304B464BEB030376
:102E4400C7F8CC30D7F8F4305B680022C7F8C0303C
:102E5400C7F8C420D7E930120B46DB183B6413468D
:102E640042EB03037B64D7E91023D7E93201FDF772
:102E7400B9F902460B4611463B4BA3FB01235B0900
:102E8400642202FB03F3CB1ADB0003F13202364B5C
:102E9400A3FB02235B095B0003F4F8731C44D7F81B
:102EA400FC300022C7F8B830C7F8BC20D7E92E8917
:102EB40042464B469118B9635B41FB63D7E90E2345
:102EC40041465118396349464B417B634FF0000238
:102ED4004FF00003D7E90CAB5946CB00514643EA07
:102EE40051735146CA0010461946034642469B1880
:102EF400C7F8B0304B460A4642EB0303C7F8B43078
:102F0400D7F8F4305B680022C7F8A830C7F8AC20C3
:102F1400D7E92A120B46DB18BB62134642EB0303C4
:102F2400FB62D7E90A23D7E92C01FDF75BF90246D6
:102F34000B460D4BA3FB02135B09642101FB03F356
:102F4400D31ADB003233084AA2FB03235B0903F0E4
:102F54000702D7F8F4301B6822449A6005E100BFE9
:102F640000100140001401401F85EB51D7F8FC30DC
:102F74000022C7F8A030C7F8A420D7E92889424620
:102F84004B46911839625B417B62D7E9082341467D
:102F94005418494643EB01054FF000024FF000037B
:102FA400EB0043EA5473E20014461D464346E3181B
:102FB400C7F898304B4645EB0303C7F89C30D7F865
:102FC400F4305B680022C7F89030C7F894204FF0C3
:102FD40000024FF00003D7E9244529468B0021461F
:102FE40043EA917321468A00D7E92601FDF7FAF8EE
:102FF40002460B46604BA3FB02235B091C01D7F876
:10300400FC300022C7F88830C7F88C20D7E9228921
:1030140042464B469118B9615B41FB61D7E90623EF
:1030240041465118396149464B417B614FF00002DA
:103034004FF00003D7E904AB5946CB00514643EAAD
:1030440051735146CA0010461946034642469B181E
:10305400C7F880304B460A4642EB0303C7F8843076
:10306400D7F8F4305B680022BB67FA674FF00002C0
:103074004FF00003D7E91E8949468B00414643EAD5
:10308400917341468A00D7E92001FDF7ABF8024667
:103094000B46394BA3FB02135B09642101FB03F3C9
:1030A400D31A1B013233344AA2FB03235B0903F016
:1030B400F0031C44D7F8FC3000223B677A67D7E959
:1030C4001C8942464B469118B9605B41FB60D7E9C5
:1030D400022341465118396049464B417B604FF009
:1030E40000024FF00003D7E900AB5946CB0051462C
:1030F40043EA51735146CA001046194603464246F4
:103104009B18BB664B460A4642EB0303FB66D7F8A3
:10311400F4305B6800223B667A664FF000024FF0A1
:103124000003D7E9188949468B00414643EA917365
:1031340041468A00D7E91A01FDF754F802460B46C6
:103144000D4BA3FB02135B09642101FB03F3D31AA8
:103154001B013233084AA2FB03235B0903F00F026D
:10316400D7F8F4301B6822449A6000BF07F58077D3
:10317400BD46BDE8B08F00BF1F85EB5170B50D4D46
:103184000D4C641BA4100026A64209D10B4D0C4C17
:1031940000F020F8641BA4100026A64205D170BDDF
:1031A40055F8043B98470136EEE755F8043B984739
:1031B4000136F2E75C3200085C3200085C32000839
:1031C4006032000802440346934200D1704703F87A
:1031D400011BF9E7F8B500BFF8BC08BC9E46704770
:0C31E400F8B500BFF8BC08BC9E46704760
:1031F0000A0D0000546865207475204F6B6521002E
:103200005468652074752073616921004E6861708F
:10321000206D6174206B6861753A00004D61742007
:103220006B6861752064756E672100004D617420C4
:103230006B68617520736169210000000000000067
:103240000000000001020304060708090000000056
:043250000102030470
:08325400C4CFFF7F0100000060
:04325C00B9010008AC
:0432600095010008CC
:103264003132334134353642373839432A302344F6
:1032740031323341424300000024F40010000000C6
:043284000100000045
:040000050800126D70
:00000001FF
